{
  "contractName": "DeadManSwitch",
  "abi": [
    {
      "inputs": [
        {
          "internalType": "address",
          "name": "_beneficiary",
          "type": "address"
        }
      ],
      "payable": false,
      "stateMutability": "nonpayable",
      "type": "constructor"
    },
    {
      "constant": true,
      "inputs": [],
      "name": "isAlive",
      "outputs": [
        {
          "internalType": "bool",
          "name": "",
          "type": "bool"
        }
      ],
      "payable": false,
      "stateMutability": "view",
      "type": "function"
    },
    {
      "constant": true,
      "inputs": [],
      "name": "lastCheckedBlock",
      "outputs": [
        {
          "internalType": "uint256",
          "name": "",
          "type": "uint256"
        }
      ],
      "payable": false,
      "stateMutability": "view",
      "type": "function"
    },
    {
      "constant": false,
      "inputs": [],
      "name": "stillAlive",
      "outputs": [],
      "payable": false,
      "stateMutability": "nonpayable",
      "type": "function"
    },
    {
      "constant": false,
      "inputs": [],
      "name": "isDead",
      "outputs": [],
      "payable": false,
      "stateMutability": "nonpayable",
      "type": "function"
    },
    {
      "constant": true,
      "inputs": [],
      "name": "getBalance",
      "outputs": [
        {
          "internalType": "uint256",
          "name": "",
          "type": "uint256"
        }
      ],
      "payable": false,
      "stateMutability": "view",
      "type": "function"
    },
    {
      "constant": false,
      "inputs": [],
      "name": "kill",
      "outputs": [],
      "payable": false,
      "stateMutability": "nonpayable",
      "type": "function"
    },
    {
      "constant": false,
      "inputs": [
        {
          "internalType": "uint256",
          "name": "amount",
          "type": "uint256"
        }
      ],
      "name": "withdraw",
      "outputs": [],
      "payable": true,
      "stateMutability": "payable",
      "type": "function"
    }
  ],
  "bytecode": "0x608060405234801561001057600080fd5b506040516107cc3803806107cc8339818101604052602081101561003357600080fd5b810190808051906020019092919050505033600160006101000a81548173ffffffffffffffffffffffffffffffffffffffff021916908373ffffffffffffffffffffffffffffffffffffffff16021790555080600260006101000a81548173ffffffffffffffffffffffffffffffffffffffff021916908373ffffffffffffffffffffffffffffffffffffffff1602179055506001600260146101000a81548160ff02191690831515021790555043600081905550506106d4806100f86000396000f3fe6080604052600436106100705760003560e01c806341c0e1b51161004e57806341c0e1b5146100fd5780637f76614b1461011457806399baa10c1461013f578063b0ad99281461015657610070565b806312065fe0146100755780632e1a7d4d146100a05780634136aa35146100ce575b600080fd5b34801561008157600080fd5b5061008a61016d565b6040518082815260200191505060405180910390f35b6100cc600480360360208110156100b657600080fd5b810190808035906020019092919050505061020e565b005b3480156100da57600080fd5b506100e361044e565b604051808215151515815260200191505060405180910390f35b34801561010957600080fd5b50610112610461565b005b34801561012057600080fd5b5061012961047e565b6040518082815260200191505060405180910390f35b34801561014b57600080fd5b50610154610484565b005b34801561016257600080fd5b5061016b610532565b005b6000600260009054906101000a900473ffffffffffffffffffffffffffffffffffffffff1673ffffffffffffffffffffffffffffffffffffffff163373ffffffffffffffffffffffffffffffffffffffff16146101c957600080fd5b6000600160009054906101000a900473ffffffffffffffffffffffffffffffffffffffff1673ffffffffffffffffffffffffffffffffffffffff163190508091505090565b600260009054906101000a900473ffffffffffffffffffffffffffffffffffffffff1673ffffffffffffffffffffffffffffffffffffffff163373ffffffffffffffffffffffffffffffffffffffff161461026857600080fd5b600260149054906101000a900460ff16156102eb576040517f08c379a00000000000000000000000000000000000000000000000000000000081526004018080602001828103825260158152602001807f4f776e6572206973207374696c6c20616c6976652e000000000000000000000081525060200191505060405180910390fd5b60006102f561016d565b90508082111561036d576040517f08c379a00000000000000000000000000000000000000000000000000000000081526004018080602001828103825260138152602001807f496e73756666696369656e742046756e64732e0000000000000000000000000081525060200191505060405180910390fd5b60003373ffffffffffffffffffffffffffffffffffffffff168360405180600001905060006040518083038185875af1925050503d80600081146103cd576040519150601f19603f3d011682016040523d82523d6000602084013e6103d2565b606091505b5050905080610449576040517f08c379a00000000000000000000000000000000000000000000000000000000081526004018080602001828103825260198152602001807f5769746864726177207472616e73666572206661696c65642e0000000000000081525060200191505060405180910390fd5b505050565b600260149054906101000a900460ff1681565b6000600260146101000a81548160ff021916908315150217905550565b60005481565b600061049b6000544361059590919063ffffffff16565b9050600a811015610514576040517f08c379a00000000000000000000000000000000000000000000000000000000081526004018080602001828103825260158152602001807f4f776e6572206973207374696c6c20616c6976652e000000000000000000000081525060200191505060405180910390fd5b6000600260146101000a81548160ff02191690831515021790555050565b600160009054906101000a900473ffffffffffffffffffffffffffffffffffffffff1673ffffffffffffffffffffffffffffffffffffffff163373ffffffffffffffffffffffffffffffffffffffff161461058c57600080fd5b43600081905550565b60006105d783836040518060400160405280601e81526020017f536166654d6174683a207375627472616374696f6e206f766572666c6f7700008152506105df565b905092915050565b600083831115829061068c576040517f08c379a00000000000000000000000000000000000000000000000000000000081526004018080602001828103825283818151815260200191508051906020019080838360005b83811015610651578082015181840152602081019050610636565b50505050905090810190601f16801561067e5780820380516001836020036101000a031916815260200191505b509250505060405180910390fd5b506000838503905080915050939250505056fea265627a7a72315820316eb39186dc0ca3f9b817842b889e3ed1318427c14612c2a5bd830659a4066464736f6c63430005100032",
  "source": "pragma solidity ^0.5.0;\r\n\r\nimport './SafeMath.sol';\r\ncontract DeadManSwitch {\r\n    \r\n    using SafeMath for uint;\r\n    \r\n    uint256 public lastCheckedBlock;\r\n    address private owner;\r\n    address private beneficiary;\r\n    bool public isAlive;\r\n    \r\n    constructor (address _beneficiary) public {\r\n        owner = msg.sender;\r\n        beneficiary = _beneficiary;\r\n        isAlive = true;\r\n        lastCheckedBlock = block.number;\r\n    }\r\n    \r\n    modifier onlyOwner () {\r\n        require(msg.sender == owner);\r\n        _;\r\n    }\r\n    modifier onlyBeneficiary () {\r\n        require(msg.sender == beneficiary);\r\n        _;\r\n    }\r\n    \r\n    function stillAlive() public onlyOwner {\r\n        lastCheckedBlock = block.number;\r\n    }\r\n    \r\n    function isDead() public{\r\n        uint256 blockDifference = block.number.sub(lastCheckedBlock);\r\n        require (blockDifference >= 10, \"Owner is still alive.\");\r\n        isAlive = false;\r\n    }\r\n    \r\n    function getBalance() view public onlyBeneficiary returns(uint256) {\r\n        uint256 bal = owner.balance;\r\n        return bal;\r\n    }\r\n    function kill() public {\r\n        isAlive = false;\r\n    }\r\n    \r\n    function withdraw(uint256 amount) public onlyBeneficiary payable {\r\n        require(!isAlive, \"Owner is still alive.\");\r\n        uint256 bal = getBalance();\r\n        require(amount <= bal, \"Insufficient Funds.\" );\r\n        (bool success, ) = msg.sender.call.value(amount)(\"\");\r\n        require(success, \"Withdraw transfer failed.\");\r\n//        msg.sender.transfer(bal);      \r\n    }\r\n    \r\n    \r\n}",
  "sourcePath": "C:/Users/dhair/Desktop/ETH/dms-eth/dms-eth/contracts/DeadManSwitch.sol",
  "compiler": {
    "name": "solc",
    "version": "0.5.16+commit.9c3226ce.Emscripten.clang"
  },
  "schemaVersion": "3.0.22",
  "updatedAt": "2020-06-17T19:36:04.552Z",
  "devdoc": {
    "methods": {}
  },
  "userdoc": {
    "methods": {}
  }
}