{
  "contractName": "DeadManSwitch",
  "abi": [
    {
      "inputs": [
        {
          "internalType": "address",
          "name": "_beneficiary",
          "type": "address"
        }
      ],
      "payable": false,
      "stateMutability": "nonpayable",
      "type": "constructor"
    },
    {
      "constant": true,
      "inputs": [],
      "name": "isAlive",
      "outputs": [
        {
          "internalType": "bool",
          "name": "",
          "type": "bool"
        }
      ],
      "payable": false,
      "stateMutability": "view",
      "type": "function"
    },
    {
      "constant": true,
      "inputs": [],
      "name": "lastCheckedBlock",
      "outputs": [
        {
          "internalType": "uint256",
          "name": "",
          "type": "uint256"
        }
      ],
      "payable": false,
      "stateMutability": "view",
      "type": "function"
    },
    {
      "constant": false,
      "inputs": [],
      "name": "stillAlive",
      "outputs": [],
      "payable": false,
      "stateMutability": "nonpayable",
      "type": "function"
    },
    {
      "constant": false,
      "inputs": [],
      "name": "isDead",
      "outputs": [],
      "payable": false,
      "stateMutability": "nonpayable",
      "type": "function"
    },
    {
      "constant": false,
      "inputs": [],
      "name": "withdraw",
      "outputs": [],
      "payable": true,
      "stateMutability": "payable",
      "type": "function"
    }
  ],
  "bytecode": "0x608060405234801561001057600080fd5b5060405161058c38038061058c8339818101604052602081101561003357600080fd5b810190808051906020019092919050505033600160006101000a81548173ffffffffffffffffffffffffffffffffffffffff021916908373ffffffffffffffffffffffffffffffffffffffff16021790555080600260006101000a81548173ffffffffffffffffffffffffffffffffffffffff021916908373ffffffffffffffffffffffffffffffffffffffff1602179055506001600260146101000a81548160ff0219169083151502179055504360008190555050610494806100f86000396000f3fe60806040526004361061004a5760003560e01c80633ccfd60b1461004f5780634136aa35146100595780637f76614b1461008857806399baa10c146100b3578063b0ad9928146100ca575b600080fd5b6100576100e1565b005b34801561006557600080fd5b5061006e6102aa565b604051808215151515815260200191505060405180910390f35b34801561009457600080fd5b5061009d6102bd565b6040518082815260200191505060405180910390f35b3480156100bf57600080fd5b506100c86102c3565b005b3480156100d657600080fd5b506100df61035b565b005b600260009054906101000a900473ffffffffffffffffffffffffffffffffffffffff1673ffffffffffffffffffffffffffffffffffffffff163373ffffffffffffffffffffffffffffffffffffffff161461013b57600080fd5b600260149054906101000a900460ff16156101be576040517f08c379a00000000000000000000000000000000000000000000000000000000081526004018080602001828103825260158152602001807f4f776e6572206973207374696c6c20616c6976652e000000000000000000000081525060200191505060405180910390fd5b60006101c86103be565b905060003373ffffffffffffffffffffffffffffffffffffffff168260405180600001905060006040518083038185875af1925050503d806000811461022a576040519150601f19603f3d011682016040523d82523d6000602084013e61022f565b606091505b50509050806102a6576040517f08c379a00000000000000000000000000000000000000000000000000000000081526004018080602001828103825260198152602001807f5769746864726177207472616e73666572206661696c65642e0000000000000081525060200191505060405180910390fd5b5050565b600260149054906101000a900460ff1681565b60005481565b600a6000544303101561033e576040517f08c379a00000000000000000000000000000000000000000000000000000000081526004018080602001828103825260158152602001807f4f776e6572206973207374696c6c20616c6976652e000000000000000000000081525060200191505060405180910390fd5b6000600260146101000a81548160ff021916908315150217905550565b600160009054906101000a900473ffffffffffffffffffffffffffffffffffffffff1673ffffffffffffffffffffffffffffffffffffffff163373ffffffffffffffffffffffffffffffffffffffff16146103b557600080fd5b43600081905550565b6000600260009054906101000a900473ffffffffffffffffffffffffffffffffffffffff1673ffffffffffffffffffffffffffffffffffffffff163373ffffffffffffffffffffffffffffffffffffffff161461041a57600080fd5b6000600160009054906101000a900473ffffffffffffffffffffffffffffffffffffffff1673ffffffffffffffffffffffffffffffffffffffff16319050809150509056fea265627a7a7231582086e3120e9b5c692d4fdbb0d77ea06967de4b7af2f19a11b353e6684efb2b041264736f6c63430005100032",
  "source": "pragma solidity ^0.5.0;\r\n\r\ncontract DeadManSwitch {\r\n    \r\n    uint256 public lastCheckedBlock;\r\n    address private owner;\r\n    address private beneficiary;\r\n    bool public isAlive;\r\n    \r\n    constructor (address _beneficiary) public {\r\n        owner = msg.sender;\r\n        beneficiary = _beneficiary;\r\n        isAlive = true;\r\n        lastCheckedBlock = block.number;\r\n    }\r\n    \r\n    modifier onlyOwner () {\r\n        require(msg.sender == owner);\r\n        _;\r\n    }\r\n    modifier onlyBeneficiary () {\r\n        require(msg.sender == beneficiary);\r\n        _;\r\n    }\r\n    \r\n    function stillAlive() public onlyOwner {\r\n        lastCheckedBlock = block.number;\r\n    }\r\n    \r\n    function isDead() public{\r\n        require ((block.number - lastCheckedBlock) >= 10, \"Owner is still alive.\");\r\n        isAlive = false;\r\n    }\r\n    \r\n    function getBalance() internal view onlyBeneficiary returns(uint256) {\r\n        uint256 bal = owner.balance;\r\n        return bal;\r\n    }\r\n    \r\n    function withdraw() public onlyBeneficiary payable {\r\n        require(!isAlive, \"Owner is still alive.\");\r\n        uint256 bal = getBalance();\r\n        (bool success, ) = msg.sender.call.value(bal)(\"\");\r\n        require(success, \"Withdraw transfer failed.\");\r\n        \r\n    }\r\n    \r\n    \r\n}",
  "sourcePath": "C:/Users/dhair/Desktop/ETH/dms-eth/dms-eth/contracts/DeadManSwitch.sol",
  "compiler": {
    "name": "solc",
    "version": "0.5.16+commit.9c3226ce.Emscripten.clang"
  },
  "schemaVersion": "3.0.22",
  "updatedAt": "2020-06-17T18:38:04.835Z",
  "devdoc": {
    "methods": {}
  },
  "userdoc": {
    "methods": {}
  }
}